{
  "address": "0x2279B7A0a67DB372996a5FaB50D91eAA73d2eBe6",
  "abi": [
    {
      "inputs": [
        {
          "internalType": "address",
          "name": "fishMarketplaceAddress",
          "type": "address"
        }
      ],
      "stateMutability": "nonpayable",
      "type": "constructor"
    },
    {
      "anonymous": false,
      "inputs": [
        {
          "indexed": false,
          "internalType": "uint256",
          "name": "listingId",
          "type": "uint256"
        },
        {
          "indexed": false,
          "internalType": "uint256",
          "name": "initialPrice",
          "type": "uint256"
        },
        {
          "indexed": false,
          "internalType": "uint256",
          "name": "adjustedPrice",
          "type": "uint256"
        }
      ],
      "name": "DebugPriceChange",
      "type": "event"
    },
    {
      "anonymous": false,
      "inputs": [
        {
          "indexed": false,
          "internalType": "uint256",
          "name": "batchId",
          "type": "uint256"
        },
        {
          "indexed": false,
          "internalType": "uint256",
          "name": "newPricePerKg",
          "type": "uint256"
        }
      ],
      "name": "PriceAdjusted",
      "type": "event"
    },
    {
      "inputs": [
        {
          "internalType": "uint256",
          "name": "listingId",
          "type": "uint256"
        },
        {
          "internalType": "uint256",
          "name": "sustainabilityFactor",
          "type": "uint256"
        },
        {
          "internalType": "uint256",
          "name": "freshnessFactor",
          "type": "uint256"
        }
      ],
      "name": "adjustPrice",
      "outputs": [],
      "stateMutability": "nonpayable",
      "type": "function"
    },
    {
      "inputs": [
        {
          "internalType": "uint256",
          "name": "",
          "type": "uint256"
        }
      ],
      "name": "freshnessMultiplier",
      "outputs": [
        {
          "internalType": "uint256",
          "name": "",
          "type": "uint256"
        }
      ],
      "stateMutability": "view",
      "type": "function"
    },
    {
      "inputs": [
        {
          "internalType": "uint256",
          "name": "",
          "type": "uint256"
        }
      ],
      "name": "sustainabilityMultiplier",
      "outputs": [
        {
          "internalType": "uint256",
          "name": "",
          "type": "uint256"
        }
      ],
      "stateMutability": "view",
      "type": "function"
    }
  ],
  "transactionHash": "0x6c33db30bff774030d006afc3af8dcce0969533bb00ac1ed5310a9351420ca4a",
  "args": [
    "0x5FC8d32690cc91D4c39d9d3abcBD16989F875707"
  ],
  "numDeployments": 1,
  "solcInputHash": "7f70af04d44ccd1bf5c27b56c66c49af",
  "bytecode": "0x6080604052348015600f57600080fd5b5060405161046f38038061046f833981016040819052602c916050565b600280546001600160a01b0319166001600160a01b0392909216919091179055607e565b600060208284031215606157600080fd5b81516001600160a01b0381168114607757600080fd5b9392505050565b6103e28061008d6000396000f3fe608060405234801561001057600080fd5b50600436106100415760003560e01c806335b42c5e14610046578063bbf182961461005b578063d0e85a291461008d575b600080fd5b61005961005436600461029d565b6100ad565b005b61007b6100693660046102c9565b60006020819052908152604090205481565b60405190815260200160405180910390f35b61007b61009b3660046102c9565b60016020526000908152604090205481565b600254604051637d82ed1760e11b81526004810185905260009182916001600160a01b039091169063fb05da2e9060240160e060405180830381865afa1580156100fb573d6000803e3d6000fd5b505050506040513d601f19601f8201168201806040525081019061011f91906102e2565b5095505050505091508482146101745760405162461bcd60e51b8152602060048201526016602482015275131a5cdd1a5b99c8191bd95cc81b9bdd08195e1a5cdd60521b604482015260640160405180910390fd5b80808515610195576064610188878361035f565b610192919061038a565b90505b84156101b45760646101a7868361035f565b6101b1919061038a565b90505b6002546040516330a9040d60e21b815260048101899052602481018390526001600160a01b039091169063c2a4103490604401600060405180830381600087803b15801561020157600080fd5b505af1158015610215573d6000803e3d6000fd5b5050604080518a8152602081018690529081018490527f9b8c0b82ec76fba9005f370f70f693233efbbe485ceaf1bbf2b8810b4cfc02ae9250606001905060405180910390a160408051888152602081018390527f433cdc262329cacb342553b87c0c326f44770ce13559357cfd1fdd7384abf20f910160405180910390a150505050505050565b6000806000606084860312156102b257600080fd5b505081359360208301359350604090920135919050565b6000602082840312156102db57600080fd5b5035919050565b600080600080600080600060e0888a0312156102fd57600080fd5b8751602089015160408a015191985096506001600160a01b038116811461032357600080fd5b606089015160808a015160a08b015160c08c015193985091965094509250801515811461034f57600080fd5b8091505092959891949750929550565b808202811582820484141761038457634e487b7160e01b600052601160045260246000fd5b92915050565b6000826103a757634e487b7160e01b600052601260045260246000fd5b50049056fea2646970667358221220277c62c69a4114c3cb471a0670cfd74c4da6cb48c071ec39951ec21ec0e4e14f64736f6c634300081b0033",
  "devdoc": {
    "kind": "dev",
    "methods": {},
    "version": 1
  },
  "userdoc": {
    "kind": "user",
    "methods": {},
    "version": 1
  },
  "storageLayout": {
    "storage": [
      {
        "astId": 758,
        "contract": "contracts/PriceAdjustment.sol:PriceAdjustment",
        "label": "sustainabilityMultiplier",
        "offset": 0,
        "slot": "0",
        "type": "t_mapping(t_uint256,t_uint256)"
      },
      {
        "astId": 762,
        "contract": "contracts/PriceAdjustment.sol:PriceAdjustment",
        "label": "freshnessMultiplier",
        "offset": 0,
        "slot": "1",
        "type": "t_mapping(t_uint256,t_uint256)"
      },
      {
        "astId": 779,
        "contract": "contracts/PriceAdjustment.sol:PriceAdjustment",
        "label": "fishMarketplace",
        "offset": 0,
        "slot": "2",
        "type": "t_contract(FishMarketplace)289"
      }
    ],
    "types": {
      "t_contract(FishMarketplace)289": {
        "encoding": "inplace",
        "label": "contract FishMarketplace",
        "numberOfBytes": "20"
      },
      "t_mapping(t_uint256,t_uint256)": {
        "encoding": "mapping",
        "key": "t_uint256",
        "label": "mapping(uint256 => uint256)",
        "numberOfBytes": "32",
        "value": "t_uint256"
      },
      "t_uint256": {
        "encoding": "inplace",
        "label": "uint256",
        "numberOfBytes": "32"
      }
    }
  }
}