{
  "_format": "hh-sol-artifact-1",
  "contractName": "InspectorAuthorization",
  "sourceName": "contracts/InspectorAuthorization.sol",
  "abi": [
    {
      "inputs": [],
      "stateMutability": "nonpayable",
      "type": "constructor"
    },
    {
      "anonymous": false,
      "inputs": [
        {
          "indexed": false,
          "internalType": "address",
          "name": "inspector",
          "type": "address"
        }
      ],
      "name": "InspectorAuthorized",
      "type": "event"
    },
    {
      "anonymous": false,
      "inputs": [
        {
          "indexed": false,
          "internalType": "address",
          "name": "inspector",
          "type": "address"
        }
      ],
      "name": "InspectorRevoked",
      "type": "event"
    },
    {
      "inputs": [
        {
          "internalType": "address",
          "name": "inspector",
          "type": "address"
        }
      ],
      "name": "authorizeInspector",
      "outputs": [],
      "stateMutability": "nonpayable",
      "type": "function"
    },
    {
      "inputs": [
        {
          "internalType": "address",
          "name": "",
          "type": "address"
        }
      ],
      "name": "authorizedInspectors",
      "outputs": [
        {
          "internalType": "bool",
          "name": "",
          "type": "bool"
        }
      ],
      "stateMutability": "view",
      "type": "function"
    },
    {
      "inputs": [],
      "name": "government",
      "outputs": [
        {
          "internalType": "address",
          "name": "",
          "type": "address"
        }
      ],
      "stateMutability": "view",
      "type": "function"
    },
    {
      "inputs": [
        {
          "internalType": "address",
          "name": "inspector",
          "type": "address"
        }
      ],
      "name": "revokeInspector",
      "outputs": [],
      "stateMutability": "nonpayable",
      "type": "function"
    }
  ],
  "bytecode": "0x6080604052348015600f57600080fd5b50600080546001600160a01b03191633179055610292806100316000396000f3fe608060405234801561001057600080fd5b506004361061004c5760003560e01c80632672f5261461005157806342f28cd2146100815780637c3d571e14610096578063f267964c146100a9575b600080fd5b600054610064906001600160a01b031681565b6040516001600160a01b0390911681526020015b60405180910390f35b61009461008f3660046101e6565b6100dc565b005b6100946100a43660046101e6565b610167565b6100cc6100b73660046101e6565b60016020526000908152604090205460ff1681565b6040519015158152602001610078565b6000546001600160a01b0316331461010f5760405162461bcd60e51b815260040161010690610216565b60405180910390fd5b6001600160a01b038116600081815260016020908152604091829020805460ff1916905590519182527f7636083d2db706a6c1953ddaf9b3d158d178a077090641f9b790859d0860d1e691015b60405180910390a150565b6000546001600160a01b031633146101915760405162461bcd60e51b815260040161010690610216565b6001600160a01b038116600081815260016020818152604092839020805460ff191690921790915590519182527fcd96265f3ebff658ab48c4d3018fad3bf231116291603d3e15e6904472e3c86f910161015c565b6000602082840312156101f857600080fd5b81356001600160a01b038116811461020f57600080fd5b9392505050565b60208082526026908201527f4f6e6c7920676f7665726e6d656e742063616e2063616c6c20746869732066756040820152653731ba34b7b760d11b60608201526080019056fea264697066735822122009a0cac5ab7ac91de6ec694a31ca26c33ee468a2f955fb219e8ac6a0c18ad04464736f6c634300081b0033",
  "linkReferences": {},
  "deployedLinkReferences": {}
}