{"contracts/InspectorAuthorization.sol":{"InspectorAuthorization":{"abi":[{"inputs":[],"stateMutability":"nonpayable","type":"constructor"},{"anonymous":false,"inputs":[{"indexed":false,"internalType":"address","name":"inspector","type":"address"}],"name":"InspectorAuthorized","type":"event"},{"anonymous":false,"inputs":[{"indexed":false,"internalType":"address","name":"inspector","type":"address"}],"name":"InspectorRevoked","type":"event"},{"inputs":[{"internalType":"address","name":"inspector","type":"address"}],"name":"authorizeInspector","outputs":[],"stateMutability":"nonpayable","type":"function"},{"inputs":[{"internalType":"address","name":"","type":"address"}],"name":"authorizedInspectors","outputs":[{"internalType":"bool","name":"","type":"bool"}],"stateMutability":"view","type":"function"},{"inputs":[],"name":"government","outputs":[{"internalType":"address","name":"","type":"address"}],"stateMutability":"view","type":"function"},{"inputs":[{"internalType":"address","name":"inspector","type":"address"}],"name":"revokeInspector","outputs":[],"stateMutability":"nonpayable","type":"function"}],"evm":{"bytecode":{"linkReferences":{},"object":"6080604052348015600f57600080fd5b50600080546001600160a01b03191633179055610292806100316000396000f3fe608060405234801561001057600080fd5b506004361061004c5760003560e01c80632672f5261461005157806342f28cd2146100815780637c3d571e14610096578063f267964c146100a9575b600080fd5b600054610064906001600160a01b031681565b6040516001600160a01b0390911681526020015b60405180910390f35b61009461008f3660046101e6565b6100dc565b005b6100946100a43660046101e6565b610167565b6100cc6100b73660046101e6565b60016020526000908152604090205460ff1681565b6040519015158152602001610078565b6000546001600160a01b0316331461010f5760405162461bcd60e51b815260040161010690610216565b60405180910390fd5b6001600160a01b038116600081815260016020908152604091829020805460ff1916905590519182527f7636083d2db706a6c1953ddaf9b3d158d178a077090641f9b790859d0860d1e691015b60405180910390a150565b6000546001600160a01b031633146101915760405162461bcd60e51b815260040161010690610216565b6001600160a01b038116600081815260016020818152604092839020805460ff191690921790915590519182527fcd96265f3ebff658ab48c4d3018fad3bf231116291603d3e15e6904472e3c86f910161015c565b6000602082840312156101f857600080fd5b81356001600160a01b038116811461020f57600080fd5b9392505050565b60208082526026908201527f4f6e6c7920676f7665726e6d656e742063616e2063616c6c20746869732066756040820152653731ba34b7b760d11b60608201526080019056fea264697066735822122009a0cac5ab7ac91de6ec694a31ca26c33ee468a2f955fb219e8ac6a0c18ad04464736f6c634300081b0033","opcodes":"PUSH1 0x80 PUSH1 0x40 MSTORE CALLVALUE DUP1 ISZERO PUSH1 0xF JUMPI PUSH1 0x0 DUP1 REVERT JUMPDEST POP PUSH1 0x0 DUP1 SLOAD PUSH1 0x1 PUSH1 0x1 PUSH1 0xA0 SHL SUB NOT AND CALLER OR SWAP1 SSTORE PUSH2 0x292 DUP1 PUSH2 0x31 PUSH1 0x0 CODECOPY PUSH1 0x0 RETURN INVALID PUSH1 0x80 PUSH1 0x40 MSTORE CALLVALUE DUP1 ISZERO PUSH2 0x10 JUMPI PUSH1 0x0 DUP1 REVERT JUMPDEST POP PUSH1 0x4 CALLDATASIZE LT PUSH2 0x4C JUMPI PUSH1 0x0 CALLDATALOAD PUSH1 0xE0 SHR DUP1 PUSH4 0x2672F526 EQ PUSH2 0x51 JUMPI DUP1 PUSH4 0x42F28CD2 EQ PUSH2 0x81 JUMPI DUP1 PUSH4 0x7C3D571E EQ PUSH2 0x96 JUMPI DUP1 PUSH4 0xF267964C EQ PUSH2 0xA9 JUMPI JUMPDEST PUSH1 0x0 DUP1 REVERT JUMPDEST PUSH1 0x0 SLOAD PUSH2 0x64 SWAP1 PUSH1 0x1 PUSH1 0x1 PUSH1 0xA0 SHL SUB AND DUP2 JUMP JUMPDEST PUSH1 0x40 MLOAD PUSH1 0x1 PUSH1 0x1 PUSH1 0xA0 SHL SUB SWAP1 SWAP2 AND DUP2 MSTORE PUSH1 0x20 ADD JUMPDEST PUSH1 0x40 MLOAD DUP1 SWAP2 SUB SWAP1 RETURN JUMPDEST PUSH2 0x94 PUSH2 0x8F CALLDATASIZE PUSH1 0x4 PUSH2 0x1E6 JUMP JUMPDEST PUSH2 0xDC JUMP JUMPDEST STOP JUMPDEST PUSH2 0x94 PUSH2 0xA4 CALLDATASIZE PUSH1 0x4 PUSH2 0x1E6 JUMP JUMPDEST PUSH2 0x167 JUMP JUMPDEST PUSH2 0xCC PUSH2 0xB7 CALLDATASIZE PUSH1 0x4 PUSH2 0x1E6 JUMP JUMPDEST PUSH1 0x1 PUSH1 0x20 MSTORE PUSH1 0x0 SWAP1 DUP2 MSTORE PUSH1 0x40 SWAP1 KECCAK256 SLOAD PUSH1 0xFF AND DUP2 JUMP JUMPDEST PUSH1 0x40 MLOAD SWAP1 ISZERO ISZERO DUP2 MSTORE PUSH1 0x20 ADD PUSH2 0x78 JUMP JUMPDEST PUSH1 0x0 SLOAD PUSH1 0x1 PUSH1 0x1 PUSH1 0xA0 SHL SUB AND CALLER EQ PUSH2 0x10F JUMPI PUSH1 0x40 MLOAD PUSH3 0x461BCD PUSH1 0xE5 SHL DUP2 MSTORE PUSH1 0x4 ADD PUSH2 0x106 SWAP1 PUSH2 0x216 JUMP JUMPDEST PUSH1 0x40 MLOAD DUP1 SWAP2 SUB SWAP1 REVERT JUMPDEST PUSH1 0x1 PUSH1 0x1 PUSH1 0xA0 SHL SUB DUP2 AND PUSH1 0x0 DUP2 DUP2 MSTORE PUSH1 0x1 PUSH1 0x20 SWAP1 DUP2 MSTORE PUSH1 0x40 SWAP2 DUP3 SWAP1 KECCAK256 DUP1 SLOAD PUSH1 0xFF NOT AND SWAP1 SSTORE SWAP1 MLOAD SWAP2 DUP3 MSTORE PUSH32 0x7636083D2DB706A6C1953DDAF9B3D158D178A077090641F9B790859D0860D1E6 SWAP2 ADD JUMPDEST PUSH1 0x40 MLOAD DUP1 SWAP2 SUB SWAP1 LOG1 POP JUMP JUMPDEST PUSH1 0x0 SLOAD PUSH1 0x1 PUSH1 0x1 PUSH1 0xA0 SHL SUB AND CALLER EQ PUSH2 0x191 JUMPI PUSH1 0x40 MLOAD PUSH3 0x461BCD PUSH1 0xE5 SHL DUP2 MSTORE PUSH1 0x4 ADD PUSH2 0x106 SWAP1 PUSH2 0x216 JUMP JUMPDEST PUSH1 0x1 PUSH1 0x1 PUSH1 0xA0 SHL SUB DUP2 AND PUSH1 0x0 DUP2 DUP2 MSTORE PUSH1 0x1 PUSH1 0x20 DUP2 DUP2 MSTORE PUSH1 0x40 SWAP3 DUP4 SWAP1 KECCAK256 DUP1 SLOAD PUSH1 0xFF NOT AND SWAP1 SWAP3 OR SWAP1 SWAP2 SSTORE SWAP1 MLOAD SWAP2 DUP3 MSTORE PUSH32 0xCD96265F3EBFF658AB48C4D3018FAD3BF231116291603D3E15E6904472E3C86F SWAP2 ADD PUSH2 0x15C JUMP JUMPDEST PUSH1 0x0 PUSH1 0x20 DUP3 DUP5 SUB SLT ISZERO PUSH2 0x1F8 JUMPI PUSH1 0x0 DUP1 REVERT JUMPDEST DUP2 CALLDATALOAD PUSH1 0x1 PUSH1 0x1 PUSH1 0xA0 SHL SUB DUP2 AND DUP2 EQ PUSH2 0x20F JUMPI PUSH1 0x0 DUP1 REVERT JUMPDEST SWAP4 SWAP3 POP POP POP JUMP JUMPDEST PUSH1 0x20 DUP1 DUP3 MSTORE PUSH1 0x26 SWAP1 DUP3 ADD MSTORE PUSH32 0x4F6E6C7920676F7665726E6D656E742063616E2063616C6C2074686973206675 PUSH1 0x40 DUP3 ADD MSTORE PUSH6 0x3731BA34B7B7 PUSH1 0xD1 SHL PUSH1 0x60 DUP3 ADD MSTORE PUSH1 0x80 ADD SWAP1 JUMP INVALID LOG2 PUSH5 0x6970667358 0x22 SLT KECCAK256 MULMOD LOG0 0xCA 0xC5 0xAB PUSH27 0xC91DE6EC694A31CA26C33EE468A2F955FB219E8AC6A0C18AD04464 PUSH20 0x6F6C634300081B00330000000000000000000000 "},"methodIdentifiers":{"authorizeInspector(address)":"7c3d571e","authorizedInspectors(address)":"f267964c","government()":"2672f526","revokeInspector(address)":"42f28cd2"}}}}}