{
  "_format": "hh-sol-artifact-1",
  "contractName": "FisheriesManagement",
  "sourceName": "contracts/FisheriesManagement.sol",
  "abi": [
    {
      "inputs": [],
      "stateMutability": "nonpayable",
      "type": "constructor"
    },
    {
      "anonymous": false,
      "inputs": [
        {
          "indexed": false,
          "internalType": "uint256",
          "name": "batchId",
          "type": "uint256"
        },
        {
          "indexed": false,
          "internalType": "string",
          "name": "reason",
          "type": "string"
        }
      ],
      "name": "DisputeRaised",
      "type": "event"
    },
    {
      "anonymous": false,
      "inputs": [
        {
          "indexed": false,
          "internalType": "uint256",
          "name": "batchId",
          "type": "uint256"
        },
        {
          "indexed": false,
          "internalType": "address",
          "name": "fisher",
          "type": "address"
        },
        {
          "indexed": false,
          "internalType": "uint256",
          "name": "weight",
          "type": "uint256"
        },
        {
          "indexed": false,
          "internalType": "uint256",
          "name": "pricePerKg",
          "type": "uint256"
        }
      ],
      "name": "FishLogged",
      "type": "event"
    },
    {
      "anonymous": false,
      "inputs": [
        {
          "indexed": false,
          "internalType": "uint256",
          "name": "batchId",
          "type": "uint256"
        },
        {
          "indexed": false,
          "internalType": "bool",
          "name": "sustainable",
          "type": "bool"
        }
      ],
      "name": "SustainabilityUpdated",
      "type": "event"
    },
    {
      "inputs": [
        {
          "internalType": "uint256",
          "name": "batchId",
          "type": "uint256"
        },
        {
          "internalType": "uint256",
          "name": "transferId",
          "type": "uint256"
        }
      ],
      "name": "addTransferToBatch",
      "outputs": [],
      "stateMutability": "nonpayable",
      "type": "function"
    },
    {
      "inputs": [
        {
          "internalType": "uint256",
          "name": "",
          "type": "uint256"
        }
      ],
      "name": "batches",
      "outputs": [
        {
          "internalType": "uint256",
          "name": "id",
          "type": "uint256"
        },
        {
          "internalType": "address",
          "name": "fisher",
          "type": "address"
        },
        {
          "internalType": "uint256",
          "name": "weight",
          "type": "uint256"
        },
        {
          "internalType": "uint256",
          "name": "pricePerKg",
          "type": "uint256"
        },
        {
          "internalType": "bool",
          "name": "isSold",
          "type": "bool"
        },
        {
          "internalType": "bool",
          "name": "inDispute",
          "type": "bool"
        },
        {
          "internalType": "bool",
          "name": "sustainable",
          "type": "bool"
        }
      ],
      "stateMutability": "view",
      "type": "function"
    },
    {
      "inputs": [
        {
          "internalType": "uint256",
          "name": "batchId",
          "type": "uint256"
        }
      ],
      "name": "getBatchSustainability",
      "outputs": [
        {
          "internalType": "bool",
          "name": "",
          "type": "bool"
        }
      ],
      "stateMutability": "view",
      "type": "function"
    },
    {
      "inputs": [
        {
          "internalType": "uint256",
          "name": "batchId",
          "type": "uint256"
        }
      ],
      "name": "getTransferIds",
      "outputs": [
        {
          "internalType": "uint256[]",
          "name": "",
          "type": "uint256[]"
        }
      ],
      "stateMutability": "view",
      "type": "function"
    },
    {
      "inputs": [],
      "name": "government",
      "outputs": [
        {
          "internalType": "address",
          "name": "",
          "type": "address"
        }
      ],
      "stateMutability": "view",
      "type": "function"
    },
    {
      "inputs": [
        {
          "internalType": "uint256",
          "name": "weight",
          "type": "uint256"
        },
        {
          "internalType": "uint256",
          "name": "pricePerKg",
          "type": "uint256"
        }
      ],
      "name": "logCatch",
      "outputs": [],
      "stateMutability": "nonpayable",
      "type": "function"
    },
    {
      "inputs": [],
      "name": "nextBatchId",
      "outputs": [
        {
          "internalType": "uint256",
          "name": "",
          "type": "uint256"
        }
      ],
      "stateMutability": "view",
      "type": "function"
    },
    {
      "inputs": [
        {
          "internalType": "uint256",
          "name": "batchId",
          "type": "uint256"
        },
        {
          "internalType": "string",
          "name": "reason",
          "type": "string"
        }
      ],
      "name": "raiseDispute",
      "outputs": [],
      "stateMutability": "nonpayable",
      "type": "function"
    },
    {
      "inputs": [
        {
          "internalType": "uint256",
          "name": "batchId",
          "type": "uint256"
        },
        {
          "internalType": "bool",
          "name": "sustainable",
          "type": "bool"
        }
      ],
      "name": "updateSustainability",
      "outputs": [],
      "stateMutability": "nonpayable",
      "type": "function"
    },
    {
      "inputs": [
        {
          "internalType": "uint256",
          "name": "batchId",
          "type": "uint256"
        },
        {
          "internalType": "uint256",
          "name": "weight",
          "type": "uint256"
        }
      ],
      "name": "updateweight",
      "outputs": [],
      "stateMutability": "nonpayable",
      "type": "function"
    }
  ],
  "bytecode": "0x608060405260018055348015601357600080fd5b50600080546001600160a01b03191633179055610953806100356000396000f3fe608060405234801561001057600080fd5b506004361061009e5760003560e01c80638462a7f8116100665780638462a7f81461012e5780639b49388114610145578063a43daf5714610158578063b32c4d8d14610194578063b467b0061461023357600080fd5b8063228679a3146100a35780632672f526146100b8578063488ddc71146100e857806353a002d8146100fb5780635aef573c1461011b575b600080fd5b6100b66100b1366004610680565b610246565b005b6000546100cb906001600160a01b031681565b6040516001600160a01b0390911681526020015b60405180910390f35b6100b66100f6366004610680565b6102a2565b61010e6101093660046106a2565b610427565b6040516100df91906106bb565b6100b6610129366004610714565b6104ba565b61013760015481565b6040519081526020016100df565b6100b6610153366004610680565b610540565b6101846101663660046106a2565b60009081526002602052604090206004015462010000900460ff1690565b60405190151581526020016100df565b6101f06101a23660046106a2565b60026020819052600091825260409091208054600182015492820154600383015460049093015491936001600160a01b031692909160ff808216916101008104821691620100009091041687565b604080519788526001600160a01b03909616602088015294860193909352606085019190915215156080840152151560a0830152151560c082015260e0016100df565b6100b66102413660046107d7565b610597565b600082815260026020526040902054821461027c5760405162461bcd60e51b81526004016102739061080c565b60405180910390fd5b600091825260026020908152604083206005018054600181018255908452922090910155565b604080516101008101825260015481523360208201529081018390526060810182905260006080820181905260a0820181905260c0820181905260e082019060405190808252806020026020018201604052801561030a578160200160208202803683370190505b50905260018054600090815260026020818152604092839020855181558582015194810180546001600160a01b0319166001600160a01b0390961695909517909455918401519083015560608301516003830155608083015160048301805460a086015160c087015161ffff1990921693151561ff00191693909317610100931515939093029290921762ff00001916620100009215159290920291909117905560e083015180516103c29260058501920190610620565b5050600154604080519182523360208301528101849052606081018390527fc245487b0bac1227b70d91464da01fa75f2972f984c41d256d1cb0cfa0a4749a915060800160405180910390a16001805490600061041e83610850565b91905055505050565b60008181526002602052604090205460609082146104575760405162461bcd60e51b81526004016102739061080c565b600082815260026020908152604091829020600501805483518184028101840190945280845290918301828280156104ae57602002820191906000526020600020905b81548152602001906001019080831161049a575b50505050509050919050565b6000546001600160a01b031633146104e45760405162461bcd60e51b815260040161027390610869565b60008281526002602052604090819020600401805461ff001916610100179055517fe07ad455e24561261e9047aab2f668ae1fc2cc6fda35021764673613b888836d9061053490849084906108af565b60405180910390a15050565b600082815260026020526040902054821461056d5760405162461bcd60e51b81526004016102739061080c565b6000828152600260208190526040822001805483929061058e908490610904565b90915550505050565b6000546001600160a01b031633146105c15760405162461bcd60e51b815260040161027390610869565b600082815260026020908152604091829020600401805462ff0000191662010000851515908102919091179091558251858152918201527fabe7f558025409962e747c2e921fcacf038a99d3d32300ec5f51a762e61353579101610534565b82805482825590600052602060002090810192821561065b579160200282015b8281111561065b578251825591602001919060010190610640565b5061066792915061066b565b5090565b5b80821115610667576000815560010161066c565b6000806040838503121561069357600080fd5b50508035926020909101359150565b6000602082840312156106b457600080fd5b5035919050565b602080825282518282018190526000918401906040840190835b818110156106f35783518352602093840193909201916001016106d5565b509095945050505050565b634e487b7160e01b600052604160045260246000fd5b6000806040838503121561072757600080fd5b82359150602083013567ffffffffffffffff81111561074557600080fd5b8301601f8101851361075657600080fd5b803567ffffffffffffffff811115610770576107706106fe565b604051601f8201601f19908116603f0116810167ffffffffffffffff8111828210171561079f5761079f6106fe565b6040528181528282016020018710156107b757600080fd5b816020840160208301376000602083830101528093505050509250929050565b600080604083850312156107ea57600080fd5b823591506020830135801515811461080157600080fd5b809150509250929050565b60208082526014908201527310985d18da08191bd95cc81b9bdd08195e1a5cdd60621b604082015260600190565b634e487b7160e01b600052601160045260246000fd5b6000600182016108625761086261083a565b5060010190565b60208082526026908201527f4f6e6c7920676f7665726e6d656e742063616e2063616c6c20746869732066756040820152653731ba34b7b760d11b606082015260800190565b828152604060208201526000825180604084015260005b818110156108e357602081860181015160608684010152016108c6565b506000606082850101526060601f19601f8301168401019150509392505050565b818103818111156109175761091761083a565b9291505056fea2646970667358221220cc7c99b4ad06dd508b1f4cd0d96148586ec15f1c0a69ecf0553177dcbb6ad2c064736f6c634300081b0033",
  "linkReferences": {},
  "deployedLinkReferences": {}
}