{
  "_format": "hh-sol-artifact-1",
  "contractName": "FisheriesManagement",
  "sourceName": "contracts/FisheriesManagement.sol",
  "abi": [
    {
      "inputs": [],
      "stateMutability": "nonpayable",
      "type": "constructor"
    },
    {
      "anonymous": false,
      "inputs": [
        {
          "indexed": false,
          "internalType": "uint256",
          "name": "batchId",
          "type": "uint256"
        },
        {
          "indexed": false,
          "internalType": "string",
          "name": "reason",
          "type": "string"
        }
      ],
      "name": "DisputeRaised",
      "type": "event"
    },
    {
      "anonymous": false,
      "inputs": [
        {
          "indexed": false,
          "internalType": "uint256",
          "name": "batchId",
          "type": "uint256"
        },
        {
          "indexed": false,
          "internalType": "address",
          "name": "fisher",
          "type": "address"
        },
        {
          "indexed": false,
          "internalType": "uint256",
          "name": "weight",
          "type": "uint256"
        },
        {
          "indexed": false,
          "internalType": "uint256",
          "name": "pricePerKg",
          "type": "uint256"
        }
      ],
      "name": "FishLogged",
      "type": "event"
    },
    {
      "anonymous": false,
      "inputs": [
        {
          "indexed": false,
          "internalType": "uint256",
          "name": "batchId",
          "type": "uint256"
        },
        {
          "indexed": false,
          "internalType": "bool",
          "name": "sustainable",
          "type": "bool"
        }
      ],
      "name": "SustainabilityUpdated",
      "type": "event"
    },
    {
      "inputs": [
        {
          "internalType": "uint256",
          "name": "batchId",
          "type": "uint256"
        },
        {
          "internalType": "uint256",
          "name": "transferId",
          "type": "uint256"
        }
      ],
      "name": "addTransferToBatch",
      "outputs": [],
      "stateMutability": "nonpayable",
      "type": "function"
    },
    {
      "inputs": [
        {
          "internalType": "uint256",
          "name": "",
          "type": "uint256"
        }
      ],
      "name": "batches",
      "outputs": [
        {
          "internalType": "uint256",
          "name": "id",
          "type": "uint256"
        },
        {
          "internalType": "address",
          "name": "fisher",
          "type": "address"
        },
        {
          "internalType": "uint256",
          "name": "weight",
          "type": "uint256"
        },
        {
          "internalType": "uint256",
          "name": "pricePerKg",
          "type": "uint256"
        },
        {
          "internalType": "bool",
          "name": "isSold",
          "type": "bool"
        },
        {
          "internalType": "bool",
          "name": "inDispute",
          "type": "bool"
        },
        {
          "internalType": "bool",
          "name": "sustainable",
          "type": "bool"
        }
      ],
      "stateMutability": "view",
      "type": "function"
    },
    {
      "inputs": [
        {
          "internalType": "uint256",
          "name": "batchId",
          "type": "uint256"
        }
      ],
      "name": "getBatchSustainability",
      "outputs": [
        {
          "internalType": "bool",
          "name": "",
          "type": "bool"
        }
      ],
      "stateMutability": "view",
      "type": "function"
    },
    {
      "inputs": [
        {
          "internalType": "uint256",
          "name": "batchId",
          "type": "uint256"
        }
      ],
      "name": "getFishBatch",
      "outputs": [
        {
          "internalType": "uint256",
          "name": "",
          "type": "uint256"
        },
        {
          "internalType": "address",
          "name": "",
          "type": "address"
        },
        {
          "internalType": "uint256",
          "name": "",
          "type": "uint256"
        },
        {
          "internalType": "uint256",
          "name": "",
          "type": "uint256"
        },
        {
          "internalType": "bool",
          "name": "",
          "type": "bool"
        },
        {
          "internalType": "bool",
          "name": "",
          "type": "bool"
        },
        {
          "internalType": "bool",
          "name": "",
          "type": "bool"
        },
        {
          "internalType": "uint256[]",
          "name": "",
          "type": "uint256[]"
        }
      ],
      "stateMutability": "view",
      "type": "function"
    },
    {
      "inputs": [
        {
          "internalType": "uint256",
          "name": "batchId",
          "type": "uint256"
        }
      ],
      "name": "getTransferIds",
      "outputs": [
        {
          "internalType": "uint256[]",
          "name": "",
          "type": "uint256[]"
        }
      ],
      "stateMutability": "view",
      "type": "function"
    },
    {
      "inputs": [],
      "name": "government",
      "outputs": [
        {
          "internalType": "address",
          "name": "",
          "type": "address"
        }
      ],
      "stateMutability": "view",
      "type": "function"
    },
    {
      "inputs": [
        {
          "internalType": "uint256",
          "name": "weight",
          "type": "uint256"
        },
        {
          "internalType": "uint256",
          "name": "pricePerKg",
          "type": "uint256"
        }
      ],
      "name": "logCatch",
      "outputs": [],
      "stateMutability": "nonpayable",
      "type": "function"
    },
    {
      "inputs": [],
      "name": "nextBatchId",
      "outputs": [
        {
          "internalType": "uint256",
          "name": "",
          "type": "uint256"
        }
      ],
      "stateMutability": "view",
      "type": "function"
    },
    {
      "inputs": [
        {
          "internalType": "uint256",
          "name": "batchId",
          "type": "uint256"
        },
        {
          "internalType": "string",
          "name": "reason",
          "type": "string"
        }
      ],
      "name": "raiseDispute",
      "outputs": [],
      "stateMutability": "nonpayable",
      "type": "function"
    },
    {
      "inputs": [
        {
          "internalType": "uint256",
          "name": "batchId",
          "type": "uint256"
        },
        {
          "internalType": "bool",
          "name": "sustainable",
          "type": "bool"
        }
      ],
      "name": "updateSustainability",
      "outputs": [],
      "stateMutability": "nonpayable",
      "type": "function"
    },
    {
      "inputs": [
        {
          "internalType": "uint256",
          "name": "batchId",
          "type": "uint256"
        },
        {
          "internalType": "uint256",
          "name": "weight",
          "type": "uint256"
        }
      ],
      "name": "updateweight",
      "outputs": [],
      "stateMutability": "nonpayable",
      "type": "function"
    }
  ],
  "bytecode": "0x608060405260018055348015601357600080fd5b50600080546001600160a01b03191633179055610b41806100356000396000f3fe608060405234801561001057600080fd5b50600436106100a95760003560e01c80636eb46b19116100715780636eb46b19146101395780638462a7f8146101605780639b49388114610177578063a43daf571461018a578063b32c4d8d146101c6578063b467b0061461026557600080fd5b8063228679a3146100ae5780632672f526146100c3578063488ddc71146100f357806353a002d8146101065780635aef573c14610126575b600080fd5b6100c16100bc366004610800565b610278565b005b6000546100d6906001600160a01b031681565b6040516001600160a01b0390911681526020015b60405180910390f35b6100c1610101366004610800565b6102d4565b610119610114366004610822565b610459565b6040516100ea9190610877565b6100c16101343660046108a7565b6104ec565b61014c610147366004610822565b610572565b6040516100ea98979695949392919061096a565b61016960015481565b6040519081526020016100ea565b6100c1610185366004610800565b6106c0565b6101b6610198366004610822565b60009081526002602052604090206004015462010000900460ff1690565b60405190151581526020016100ea565b6102226101d4366004610822565b60026020819052600091825260409091208054600182015492820154600383015460049093015491936001600160a01b031692909160ff808216916101008104821691620100009091041687565b604080519788526001600160a01b03909616602088015294860193909352606085019190915215156080840152151560a0830152151560c082015260e0016100ea565b6100c16102733660046109c5565b610717565b60008281526002602052604090205482146102ae5760405162461bcd60e51b81526004016102a5906109fa565b60405180910390fd5b600091825260026020908152604083206005018054600181018255908452922090910155565b604080516101008101825260015481523360208201529081018390526060810182905260006080820181905260a0820181905260c0820181905260e082019060405190808252806020026020018201604052801561033c578160200160208202803683370190505b50905260018054600090815260026020818152604092839020855181558582015194810180546001600160a01b0319166001600160a01b0390961695909517909455918401519083015560608301516003830155608083015160048301805460a086015160c087015161ffff1990921693151561ff00191693909317610100931515939093029290921762ff00001916620100009215159290920291909117905560e083015180516103f492600585019201906107a0565b5050600154604080519182523360208301528101849052606081018390527fc245487b0bac1227b70d91464da01fa75f2972f984c41d256d1cb0cfa0a4749a915060800160405180910390a16001805490600061045083610a3e565b91905055505050565b60008181526002602052604090205460609082146104895760405162461bcd60e51b81526004016102a5906109fa565b600082815260026020908152604091829020600501805483518184028101840190945280845290918301828280156104e057602002820191906000526020600020905b8154815260200190600101908083116104cc575b50505050509050919050565b6000546001600160a01b031633146105165760405162461bcd60e51b81526004016102a590610a57565b60008281526002602052604090819020600401805461ff001916610100179055517fe07ad455e24561261e9047aab2f668ae1fc2cc6fda35021764673613b888836d906105669084908490610a9d565b60405180910390a15050565b6000806000806000806000606088600260008b815260200190815260200160002060000154146105b45760405162461bcd60e51b81526004016102a5906109fa565b6000898152600260208181526040808420815161010080820184528254825260018301546001600160a01b031682860152948201548184015260038201546060820152600482015460ff808216151560808401529581048616151560a0830152620100009004909416151560c0850152600581018054835181860281018601909452808452919360e0860193929083018282801561067157602002820191906000526020600020905b81548152602001906001019080831161065d575b5050505050815250509050806000015181602001518260400151836060015184608001518560a001518660c001518760e001519850985098509850985098509850985050919395975091939597565b60008281526002602052604090205482146106ed5760405162461bcd60e51b81526004016102a5906109fa565b6000828152600260208190526040822001805483929061070e908490610af2565b90915550505050565b6000546001600160a01b031633146107415760405162461bcd60e51b81526004016102a590610a57565b600082815260026020908152604091829020600401805462ff0000191662010000851515908102919091179091558251858152918201527fabe7f558025409962e747c2e921fcacf038a99d3d32300ec5f51a762e61353579101610566565b8280548282559060005260206000209081019282156107db579160200282015b828111156107db5782518255916020019190600101906107c0565b506107e79291506107eb565b5090565b5b808211156107e757600081556001016107ec565b6000806040838503121561081357600080fd5b50508035926020909101359150565b60006020828403121561083457600080fd5b5035919050565b600081518084526020840193506020830160005b8281101561086d57815186526020958601959091019060010161084f565b5093949350505050565b60208152600061088a602083018461083b565b9392505050565b634e487b7160e01b600052604160045260246000fd5b600080604083850312156108ba57600080fd5b82359150602083013567ffffffffffffffff8111156108d857600080fd5b8301601f810185136108e957600080fd5b803567ffffffffffffffff81111561090357610903610891565b604051601f8201601f19908116603f0116810167ffffffffffffffff8111828210171561093257610932610891565b60405281815282820160200187101561094a57600080fd5b816020840160208301376000602083830101528093505050509250929050565b88815260018060a01b0388166020820152866040820152856060820152841515608082015283151560a082015282151560c082015261010060e082015260006109b761010083018461083b565b9a9950505050505050505050565b600080604083850312156109d857600080fd5b82359150602083013580151581146109ef57600080fd5b809150509250929050565b60208082526014908201527310985d18da08191bd95cc81b9bdd08195e1a5cdd60621b604082015260600190565b634e487b7160e01b600052601160045260246000fd5b600060018201610a5057610a50610a28565b5060010190565b60208082526026908201527f4f6e6c7920676f7665726e6d656e742063616e2063616c6c20746869732066756040820152653731ba34b7b760d11b606082015260800190565b828152604060208201526000825180604084015260005b81811015610ad15760208186018101516060868401015201610ab4565b506000606082850101526060601f19601f8301168401019150509392505050565b81810381811115610b0557610b05610a28565b9291505056fea2646970667358221220c2c9246c4125f5d62dd7f270f88e6ed0df8176c1707df830796ca16a50c3a25c64736f6c634300081b0033",
  "linkReferences": {},
  "deployedLinkReferences": {}
}